:020000040800F2
:1000000000280020191F0008451E0008471E000890
:10001000491E00084B1E00084D1E0008000000008D
:100020000000000000000000000000004F1E00085B
:10003000511E000800000000531E0008551E000855
:10004000611F0008611F0008611F0008611F000890
:10005000611F0008611F0008611F0008611F000880
:10006000611F0008611F0008611F0008611F000870
:10007000611F0008611F0008611F0008611F000860
:10008000611F0008611F0008611F0008611F000850
:10009000611F0008611F0008611F0008611F000840
:1000A000611F0008611F0008611F0008611F000830
:1000B000611F0008611F000800000000611F0008A8
:1000C000611F00080000000000000000611F000820
:1000D00000000000591E0008611F00080000000019
:1000E000611F0008611F0008611F00080000000078
:1000F0000000000000000000000000000000000000
:0C01000000000000000000005FF808F1A3
:1001100010B5054C237833B9044B13B10448AFF341
:1001200000800123237010BDE001002000000000CA
:10013000406F000808B5034B1BB103490348AFF3F8
:10014000008008BD00000000E4010020406F0008AE
:1001500010F8012B11F8013B012A28BF9A42F7D071
:10016000D01A7047034613F8012B002AFBD1181A46
:100170000138704781F0004102E000BF83F0004386
:1001800030B54FEA41044FEA430594EA050F08BF32
:1001900090EA020F1FBF54EA000C55EA020C7FEAF6
:1001A000645C7FEA655C00F0E2804FEA5454D4EB73
:1001B0005555B8BF6D420CDD2C4480EA020281EA3D
:1001C000030382EA000083EA010180EA020281EA75
:1001D0000303362D88BF30BD11F0004F4FEA0131C7
:1001E0004FF4801C4CEA113102D0404261EB4101D6
:1001F00013F0004F4FEA03334CEA133302D052425C
:1002000063EB430394EA050F00F0A780A4F1010417
:10021000D5F1200E0DDB02FA0EFC22FA05F2801851
:1002200041F1000103FA0EF2801843FA05F3594137
:100230000EE0A5F120050EF1200E012A03FA0EFCB6
:1002400028BF4CF0020C43FA05F3C01851EBE371E0
:1002500001F0004507D54FF0000EDCF1000C7EEBFD
:1002600000006EEB0101B1F5801F1BD3B1F5001F3B
:100270000CD349085FEA30004FEA3C0C04F101045A
:100280004FEA445212F5800F80F09A80BCF1004F83
:1002900008BF5FEA500C50F1000041EB045141EA05
:1002A000050130BD5FEA4C0C404141EB0101013CCE
:1002B00028BFB1F5801FE9D291F0000F04BF0146BD
:1002C0000020B1FA81F308BF2033A3F10B03B3F18F
:1002D00020020CDA0C3208DD02F1140CC2F10C021F
:1002E00001FA0CF021FA02F10CE002F11402D8BF7D
:1002F000C2F1200C01FA02F120FA0CFCDCBF41EA49
:100300000C019040E41AA2BF01EB0451294330BD17
:100310006FEA04041F3C1CDA0C340EDC04F11404F4
:10032000C4F1200220FA04F001FA02F340EA0300CB
:1003300021FA04F345EA030130BDC4F10C04C4F111
:10034000200220FA02F001FA04F340EA03002946F1
:1003500030BD21FA04F0294630BD94F0000F83F43B
:10036000801306BF81F480110134013D4EE77FEA1E
:10037000645C18BF7FEA655C29D094EA050F08BF6A
:1003800090EA020F05D054EA000C04BF194610464B
:1003900030BD91EA030F1EBF0021002030BD5FEA8F
:1003A000545C05D14000494128BF41F0004130BDB7
:1003B00014F580043CBF01F5801130BD01F000450B
:1003C00045F0FE4141F470014FF0000030BD7FEA7E
:1003D000645C1ABF194610467FEA655C1CBF0B4679
:1003E000024650EA013406BF52EA033591EA030F90
:1003F00041F4002130BD00BF90F0000F04BF002188
:10040000704730B54FF4806404F132044FF00005BA
:100410004FF0000150E700BF90F0000F04BF002133
:10042000704730B54FF4806404F1320410F0004599
:1004300048BF40424FF000013EE700BF42004FEA94
:10044000E2014FEA31014FEA02701FBF12F07F4311
:1004500093F07F4F81F06051704732F07F4208BFC8
:10046000704793F07F4F04BF41F40021704730B5CF
:100470004FF4607401F0004521F000411CE700BF1B
:1004800050EA010208BF704730B54FF000050AE09E
:1004900050EA010208BF704730B511F0004502D59F
:1004A000404261EB41014FF4806404F132045FEAA1
:1004B000915C3FF4D8AE4FF003025FEADC0C18BF4A
:1004C00003325FEADC0C18BF033202EBDC02C2F13C
:1004D000200300FA03FC20FA02F001FA03FE40EACE
:1004E0000E0021FA02F11444BDE600BF70B54FF0D2
:1004F000FF0C4CF4E06C1CEA11541DBF1CEA1355B0
:1005000094EA0C0F95EA0C0F00F0DEF82C4481EA17
:10051000030621EA4C5123EA4C5350EA013518BF37
:1005200052EA033541F4801143F4801338D0A0FB24
:1005300002CE4FF00005E1FB02E506F00042E0FBD1
:1005400003E54FF00006E1FB03569CF0000F18BFD7
:100550004EF0010EA4F1FF04B6F5007F64F540747F
:1005600004D25FEA4E0E6D4146EB060642EAC62112
:1005700041EA55514FEAC52040EA5E504FEACE2E7F
:10058000B4F1FD0C88BFBCF5E06F1ED8BEF1004F82
:1005900008BF5FEA500E50F1000041EB045170BDFE
:1005A00006F0004646EA010140EA020081EA030142
:1005B000B4EB5C04C2BFD4EB0C0541EA045170BD3E
:1005C00041F480114FF0000E013C00F3AB8014F1B8
:1005D000360FDEBF002001F0004170BDC4F1000401
:1005E000203C35DA0C341BDC04F11404C4F1200582
:1005F00000FA05F320FA04F001FA05F240EA0200DD
:1006000001F0004221F0004110EBD37021FA04F612
:1006100042EB06015EEA430E08BF20EAD37070BDCC
:10062000C4F10C04C4F1200500FA04F320FA05F02B
:1006300001FA04F240EA020001F0004110EBD3702D
:1006400041F100015EEA430E08BF20EAD37070BD9D
:10065000C4F1200500FA05F24EEA020E20FA04F376
:1006600001FA05F243EA020321FA04F001F0004125
:1006700021FA04F220EA020000EBD3705EEA430E96
:1006800008BF20EAD37070BD94F0000F0FD101F0C5
:100690000046400041EB010111F4801F08BF013CFE
:1006A000F7D041EA060195F0000F18BF704703F03C
:1006B0000046520043EB030313F4801F08BF013DC3
:1006C000F7D043EA0603704794EA0C0F0CEA13557F
:1006D00018BF95EA0C0F0CD050EA410618BF52EA39
:1006E0004306D1D181EA030101F000414FF000003F
:1006F00070BD50EA410606BF1046194652EA43064D
:1007000019D094EA0C0F02D150EA013613D195EAC0
:100710000C0F05D152EA03361CBF104619460AD108
:1007200081EA030101F0004141F0FE4141F4700112
:100730004FF0000070BD41F0FE4141F4780170BD02
:1007400070B54FF0FF0C4CF4E06C1CEA11541DBF67
:100750001CEA135594EA0C0F95EA0C0F00F0A7F869
:10076000A4EB050481EA030E52EA03354FEA013196
:1007700000F088804FEA03334FF0805545EA1313A9
:1007800043EA12634FEA022245EA111545EA106571
:100790004FEA00260EF000419D4208BF964244F108
:1007A000FD0404F5407402D25B084FEA3202B61A27
:1007B00065EB03055B084FEA32024FF480104FF4FB
:1007C000002CB6EB020E75EB030E22BFB61A75466F
:1007D00040EA0C005B084FEA3202B6EB020E75EB02
:1007E000030E22BFB61A754640EA5C005B084FEA6A
:1007F0003202B6EB020E75EB030E22BFB61A754637
:1008000040EA9C005B084FEA3202B6EB020E75EB41
:10081000030E22BFB61A754640EADC0055EA060E02
:1008200018D04FEA051545EA16754FEA06164FEA45
:10083000C30343EA52734FEAC2025FEA1C1CC0D1F1
:1008400011F4801F0BD141EA00014FF000004FF07E
:10085000004CB6E711F4801F04BF01430020B4F13F
:10086000FD0C88BFBCF5E06F3FF6AFAEB5EB030CF7
:1008700004BFB6EB020C5FEA500C50F1000041EBF4
:10088000045170BD0EF0004E4EEA113114EB5C04C1
:10089000C2BFD4EB0C0541EA045170BD41F4801194
:1008A0004FF0000E013C90E645EA060E8DE60CEA9C
:1008B000135594EA0C0F08BF95EA0C0F3FF43BAFB9
:1008C00094EA0C0F0AD150EA01347FF434AF95EA70
:1008D0000C0F7FF425AF104619462CE795EA0C0F54
:1008E00006D152EA03353FF4FDAE1046194622E721
:1008F00050EA410618BF52EA43067FF4C5AE50EAFB
:1009000041047FF40DAF52EA43057FF4EBAE12E7EA
:100910004FF0FF3C06E000BF4FF0010C02E000BFCB
:100920004FF0010C4DF804CD4FEA410C7FEA6C5CAE
:100930004FEA430C18BF7FEA6C5C1BD001B050EA51
:10094000410C0CBF52EA430C91EA030F02BF90EA3C
:10095000020F0020704710F1000F91EA030F58BFFB
:10096000994208BF90422CBFD8176FEAE37040F05D
:10097000010070474FEA410C7FEA6C5C02D150EAFB
:10098000013C07D14FEA430C7FEA6C5CD6D152EAB6
:10099000033CD3D05DF8040B704700BF844610467B
:1009A00062468C461946634600E000BF01B5FFF77A
:1009B000B7FF002848BF10F1000F01BD4DF808ED4A
:1009C000FFF7F4FF0CBF012000205DF808FB00BF1B
:1009D0004DF808EDFFF7EAFF34BF012000205DF875
:1009E00008FB00BF4DF808EDFFF7E0FF94BF0120C2
:1009F00000205DF808FB00BF4DF808EDFFF7CEFFC3
:100A000094BF012000205DF808FB00BF4DF808ED01
:100A1000FFF7C4FF34BF012000205DF808FB00BFD2
:100A20004FEA410C7FEA6C5C02D150EA013C0AD1EA
:100A30004FEA430C7FEA6C5C02D152EA033C02D1DC
:100A40004FF0000070474FF0010070474FEA41023D
:100A500012F5001215D211D56FF47873B3EB625210
:100A600012D94FEAC12343F0004343EA505311F037
:100A7000004F23FA02F018BF404270474FF00000C9
:100A8000704750EA013005D111F0004008BF6FF007
:100A9000004070474FF00000704700BF4A0011D27D
:100AA00012F5001211D20DD56FF47873B3EB6252C8
:100AB0000ED44FEAC12343F0004343EA505323FAD4
:100AC00002F070474FF00000704750EA013002D149
:100AD0004FF0FF3070474FF00000704738B50546C3
:100AE0000C460022002328462146FFF771FF28B953
:100AF00028462146BDE8384000F00AB8284604F1EF
:100B0000004100F005F8404261EB410138BD00BFF3
:100B1000D0B500220B4B06460F46FFF7E7FCFFF768
:100B2000BDFF0446FFF768FC0022074BFFF7DEFC21
:100B300002460B4630463946FFF720FBFFF7AEFF73
:100B40002146D0BD0000F03D0000F041002210B56C
:100B500004461046A15CA1F13003092B0BD8A0F18B
:100B60003003032A01EB030002F1010218BF000168
:100B7000042AEFD110BDA1F14103052B02D8A0F149
:100B80003703EEE7A1F16103052B02D8A0F157036B
:100B9000E7E70020EEE700002DE9F84F0A688B68D0
:100BA00006465C1CD018D35C8946222B144440F0C6
:100BB000ED80A04600234D68A8EB0201A94280F019
:100BC000E58098F8001022290ED1C3F10103A8EBAB
:100BD0000000D9F81020184490478246002800F001
:100BE000D58005466C4F12E05C2907D108F1010859
:100BF000A8EB02018D4240F2C980013308F10108DF
:100C0000DAE723785C2B13D0013405F8013B444527
:100C1000F7D300232B7010230120C6E9033AD9F83B
:100C20000030A8EB03030133C9F80830BDE8F88FA2
:100C3000A8EB0402002A0DDD6378752B0AD86D2B12
:100C400012D8622B2BD025D82F2B38D05C2B36D046
:100C5000222B34D05046D9F814309847D9F80030B8
:100C6000E31AC9F8083094E06E3B072BF2D801A1D3
:100C700051F823F0AD0C0008550C0008550C000885
:100C8000550C0008B30C0008550C0008B90C0008FE
:100C9000C30C0008662BDDD10C236A1C01E008237D
:100CA0006A1C02212B700C441546B0E70A236A1C0B
:100CB000F7E70D236A1CF4E709236A1CF1E76A1CB5
:100CC000EFE7052AC6DDA01CFFF740FFA0F55C4357
:100CD000B3F5806F8346BDD3A0F55843B3F5806F5D
:100CE0002ED2A31DA8EB0303052BB3DDA3795C2B48
:100CF000B0D1E379752BADD104F10800FFF726FFE1
:100D0000A0F55C43B3F5806FA4D20C2107EA8B2BCE
:100D1000C0F309004BEA000B0BF5803B4FF0F00CE1
:100D20000422501EC0B22844A8425FFA8BF324D19B
:100D3000012A14BF4CEA030303F07F032A44B1E7FE
:100D40007F280BD9B0F5006F0DD3B0F5803F0FD3DE
:100D5000B0F5881FBFF47EAF0621DFE706214FF014
:100D6000000C0122DDE706214FF0C00C0222D8E77B
:100D700006214FF0E00C0322D3E703F03F0363F0BA
:100D80007F0300F801394FEA9B1BCDE7002C7FF46D
:100D900065AF00204AE700BF00FC0F0010B528B186
:100DA000016889B1D0E901329A4202D310BD013203
:100DB00082608268934203D98C5C202CF7D9F5E7D6
:100DC000F4D1013B8360F1E70846EFE738B504460C
:100DD00038B1006828B1A5682844FFF7C3F9054475
:100DE000A56038BD70B50446B8B1056865B1436803
:100DF00013B18268934210D900290EDBA2684E1C01
:100E00001644B34202D31544284670BD236923B962
:100E1000B6F1804F03D3002E0FDA0025F4E77600F9
:100E2000236A6BB12846314698470546B0B9E36955
:100E300020689847C4E90055E6E76FF00046EFE701
:100E40003046A369984705460028F0D0A26821687B
:100E5000013203F04EFDE36920689847A368C4E9B6
:100E600000561D44D0E70000F8B50D4604460028A2
:100E700034D0002931D08468FAB9194E74B3236A8A
:100E8000C3B1AB4221D005F1FF3C013B1CF8011F6F
:100E90000F46725C02F00302012A13F8012F08BF0B
:100EA00001F12007B05C00F00300012808BF2032E8
:100EB00097420FD02468E1E724687CB1216A21B110
:100EC0002846FFF745F90028F6D1236A002B08BF12
:100ED000002403E00029D9D1F7E70C462046F8BDED
:100EE000A970000881B138B181420DD0836823B95F
:100EF0008160C1E90031012070475A68002AFAD0A8
:100F000011604A605960F6E7002070472DE9F84FFC
:100F10000646084611B90020BDE8F88F2EB33146C9
:100F20004FF0000A414C0D4611F8013B3BBBAD1B95
:100F30005544E91CFFF756FF07460028EBD04FF059
:100F4000220B441C05F1010905F1020880F800B0EC
:100F5000BAF1000F29D12A463146204603F0C9FCD8
:100F600007F809B007F808A007E00321FFF73AFFE8
:100F70000028D0D02E4903F0B4FC0120CCE7222B6E
:100F80000BD8072B0CD9A3F10802D2B224FA02F233
:100F9000D20705D50AF1010AC5E75C2BC3D1F9E7F1
:100FA0001F2B98BF0AF1050ABDE75C254FF0740AB4
:100FB000DFF880B0013E16F8013F2BB9222207F876
:100FC000092007F80830D8E71F2B07D9222B05D0B6
:100FD0005C2B03D020462370441CECE7204600F82D
:100FE000015B32780D2A0AD8072A1AD9A2F1080320
:100FF000052B16D8DFE803F009120E150C10222A73
:1010000001D05C2A0DD16270E6E762236370E3E7EA
:101010006623FBE76E23F9E77223F7E784F801A064
:10102000DAE7594603F014FB601DD5E737000004EA
:10103000646F0008676F000870B5054670B1FFF770
:1010400091F8074B461C30461B689847044618B178
:101050003246294603F04DFC204670BD0446FBE7AE
:1010600000000020F8B50D461446074600B3F9B15C
:10107000F2B190421CD093B1D66846F40076E36892
:101080009B0504D4206A10B10A4B5B68984721463F
:1010900038462562E660BDE8F840FFF723BF084602
:1010A000FFF7CAFF054618B1E66826F40076E6E7C2
:1010B0000020F8BD00000020034610B52820984706
:1010C000044618B12822002103F051FB204610BD30
:1010D0002DE9F04F0C4680468DB008B900255DE043
:1010E0000029FBD0057B102D00F00C8118DC6B1E55
:1010F000072BF3D8072BF1D801A252F823F000BF39
:101100008B110008A5110008DD10000875110008FA
:10111000DD100008DD100008DD100008B511000822
:10112000402D00F01E81802D00F0D880202DD5D1DB
:10113000866801212046FFF755FE0028CED05B23AC
:101140002C274FF000080370A3680133A360E36805
:101150000133E360002E40F0DB8002212046FFF7E0
:1011600041FE0028BAD05D2346700370E368013B5E
:10117000E36008E005212046FFF734FE0028ADD0EB
:10118000914903F0AEFB012508E006212046FFF758
:1011900029FE0028A2D08D4903F0A3FB28460DB0FC
:1011A000BDE8F08F05212046FFF71CFE002895D0F2
:1011B0008749E6E70021D0E90667162206A80591CF
:1011C00003F0D5FA002200233046CDE90223394648
:1011D00032463B46FFF724FC88B927F000494FF020
:1011E000FF32304649467B4BFFF71AFCF0B94FF00F
:1011F000FF3230464946774BFFF7F4FBB0B97249EE
:1012000005A803F06EFB04252046691CFFF7EAFDE4
:1012100000283FF463AF024605AB4119914258D113
:1012200000234355A3682B44A360ACE7D8F81450BF
:101230002846FFF7F1F802460B4630463946FFF7DD
:10124000BDFB48B12A46644905A803F001FA0546EA
:10125000192D3FF643AFD7E732463B465F4905A815
:1012600003F0F6F95E49054602AA05A803F010FA54
:10127000012827D1DDE902AB2BF000484346524656
:1012800049463046FFF7A4FB002814BF53463346B7
:1012900032465046019359463B4608BFC846FEF7C2
:1012A0006DFF002282464F4B21F0004901984146D4
:1012B000FFF71CF902460B4650464946FFF792FBE2
:1012C0000028C5D132463B46474905A803F0C0F97E
:1012D000BDE713F8016B02F8016B9FE70069002876
:1012E0003FF4FCAEFEF73EFF451C29462046FFF7C3
:1012F00079FD00283FF4F2AE2A46D8F8101003F02A
:10130000F8FA40E700690DB0BDE8F04FFFF7FEBD09
:1013100021463046FFF7DCFE00283FF4DFAE2046D2
:10132000FFF754FD3368BBB163692046002B14BF3F
:101330004FF002094FF0010909F10101FFF752FDD9
:1013400000283FF4CBAE077063693BB9431C83F8B8
:101350000080A3684B44A3603668FBE6831C45709D
:10136000F5E74B698568002B14BF0226012620464D
:10137000711CFFF737FD00283FF4B0AE7B230370EC
:10138000E3680133E36063690BB10A234370A36828
:101390003A2733440926A36063693DBB002B00F064
:1013A0008580E16801312046FFF71CFD00283FF4ED
:1013B00095AE6369002B40F0838003467D221A704E
:1013C00000225A70D2E600BF6D6F0008726F0008ED
:1013D000786F0008FFFFEF7F7D6F0008806F0008C7
:1013E000876F00080000B03C8B6F000873B1204687
:1013F000E168FFF7F7FC00283FF470AE0346E268AF
:10140000191A8A424FD8A3681344A3602146286A58
:10141000FFF77CFD00283FF461AE2046FFF7D6FCC5
:1014200063692046002B14BF4FF002084FF00108FB
:101430004146FFF7D7FC00283FF450AE07706369C0
:1014400003B14670A368214643442846A360FFF7D2
:101450003FFE00283FF442AE2046FFF7B7FC2B6862
:101460006269B3F1000818BF4FF00108002A18BFE5
:1014700008F10108204608F10101FFF7B3FC00283C
:101480003FF42CAE2B6813B12C2300F8013B6369A9
:1014900013B10A2300F8013B00230370A3682D68F1
:1014A0004344A36078E703F8016BA8E702217AE7D9
:1014B00003F8015BE268191A013A9142F8D37DE71B
:1014C00003460925F6E700BF70B5234D8AB00E46E6
:1014D00024220021044601A803F049F92B684FF4A7
:1014E000807098474FF48072034606960AAE0190CA
:1014F000029295E8070006E907007BB1204601A9A2
:10150000FFF7E6FD50B101A8FFF760FCAE68039954
:101510005EB101980131B0470446D0B9019CC4B115
:1015200020466B689847002413E02B68481C9847B6
:1015300004460028F2D0039A029B01329A4228BF47
:101540001A46019903F0D5F9039BE6546B6801989C
:10155000984720460AB070BD00000020024BD3E936
:1015600000031844704700BFFC0100202DE9F04142
:1015700004460027124E0CB9BDE8F081E368D4F8A8
:101580000080DA0504D4A06880B92069736898B92E
:10159000E36813F4007504D1206A10B173689847AA
:1015A00025622046736898474446E4E7FFF7DEFF6C
:1015B000E368DB05E9D5EBE798472761E8E700BF7B
:1015C00000000020000000002DE9F04706460C4610
:1015D00092B009B9002023E00F68002FFAD08D687F
:1015E000D1F8048005F10409C1450BD80422AA49A9
:1015F000781903F0E0F828B90423F360C4F80890E0
:1016000001200DE005F1050AD0450CD30522A349C0
:10161000781903F0D0F830B90120F060C4F808A0C0
:1016200012B0BDE8F087C1450CD804229C49781956
:1016300003F0C1F830B902230120F3607061C4F8EF
:101640000890EDE74545C5D27B5D7819222B06D180
:101650002146304612B0BDE8F047FFF79DBA2D2B6A
:1016600003D0A3F13002092A54D800230DF1080C4D
:1016700067464FF0010EA8EB0505DFF828820193BD
:1016800010F8012B452A3DD82A2A10D9A2F12B01A6
:10169000C9B20EFA01F111EA080F01D12E2A06D1C2
:1016A00001333F2B0CF8012B01D0AB42E8D10025D0
:1016B00048336B44384603F8405C01A902F070FEE1
:1016C000DDF804A08046BA45894683D070A3D3E9EB
:1016D0000023FFF791F9B8B9002240464946724B02
:1016E000FFF780F998B940464946FFF7AFF908235C
:1016F000C6E90689F360A368AAEB070A7061534440
:10170000A3607DE7652ACAE76FF00040EFE74FF07E
:101710000040ECE75B2B55D1E368B3F57A7FBFF46B
:1017200059AF0133E3607B5D5B2B7FF453AF013531
:101730002046A560FFF732FBA368984502D9FA5C02
:101740005D2A32D05A1E9845A2607FF643AF00252D
:101750002F462069FFF7B0FCA8460546002800F098
:10176000AE8007B3C8F80000C0F80480A368204624
:101770000133A360FFF712FB21462846FFF724FF41
:10178000002800F09F802046FFF708FBD4E90123E2
:10179000934280F097802268D35C2C2BD9D05D2BAC
:1017A00040F0908003E00746E0E700252F46E3681D
:1017B000013BE36007B17D602023C6E90273A368A3
:1017C00001339DE77B2B7FF405AFE368B3F57A7FA8
:1017D000BFF400AF0133E3607B5D7B2B7FF4FAAE97
:1017E00001352046A560FFF7D9FAA368984502D9CC
:1017F000FA5C7D2A5AD05A1E9845A2607FF6EAAE5E
:1018000000252F46A8462069FFF756FCA946054645
:10181000002854D0002F39D0C9F80000C0F8049037
:10182000A3686268013393424CD22046A360FFF75D
:10183000B5FA21462846FFF7AFF9002842D02046E6
:10184000FFF7ACFA2B69C5F810802B62D4E90123AD
:10185000934237D22268D25C3A2A33D101332046F0
:10186000A360FFF79BFA21462846FFF7ADFE48B379
:101870002046FFF793FAD4E90123934222D222684B
:10188000D35C2C2BBFD07D2B1CD111E00746C7E7C2
:101890000000C0FFFFFFDF416D6F0008726F00089E
:1018A000786F0008E57F00040000E0C100252F46A6
:1018B000E368013BE36007B17D6040237DE7002FD3
:1018C0003FF488AE3846FFF751FE83E62DE9F0433A
:1018D00005464FF0000989B02E4F0C4616460021F0
:1018E0001C2201A8984602F042FFC7E90099002D8A
:1018F00046D0002C39D0284BCDE9015493E807009D
:1019000008AB03E90700FFF7D7FB044668B301986B
:1019100070B1039B5BB9029B042B06D903221F49BC
:1019200002F049FF08B90323039301A800E04846E9
:10193000FFF734FA01462046FFF746FE90B1B8F1B2
:10194000000F04D1F6B9204609B0BDE8F08301A824
:10195000FFF724FADDE90223934203D2019AD35C14
:10196000002BEFD02046FFF701FEDDE90223934272
:1019700001D362B1531E0EB1EA183260C7E90053B9
:101980000024E0E7019B039A13443360DBE713462E
:10199000F1E700BFFC01002000000020926F00086A
:1019A00070B50D461646044648B1FEF7DBFB3346DC
:1019B0002A46411C2046BDE87040FFF787BF70BD36
:1019C00000221146FFF7ECBF0121FFF77DBD002289
:1019D000FFF74ABA38B50A4B05461868FFF76CFBA3
:1019E000044658B11023C3602846FFF725FB05467F
:1019F000206118B92046FFF7B9FD2C46204638BDB6
:101A00000000002070B5054610460E46FFF7E2FFC5
:101A100000230246044631462846FFF723FB0546CD
:101A200018B92046FFF7A2FD2C46204670BD0000E5
:101A300008B5044B1868FFF73FFB08B14023C360AB
:101A400008BD00BF0000002020B1007BA0F1100302
:101A500058425841704730B595B0242200210BA858
:101A600002F085FE1422102500210DEB020002F089
:101A70007EFE00212A4601A802F079FE02240123FD
:101A80000AA8CDE90E350A9400F020FE014608B1FF
:101A900072B6FEE70F23CDE90700CDE905300990C6
:101AA00005A800F0D5FF08B172B6FEE7039001A8C3
:101AB000019401F089F808B172B6FEE715B030BDA7
:101AC0000268154B10B49A4223D1144B14491A786A
:101AD0008A5C0A2A09D01A788A5C7D2A05D01A788D
:101AE0008A5C12B11A78302A0ED9002001241A78A3
:101AF0000A4450700B4A147018701B7801220A486F
:101B000010BC194401F0BBBB1A780132D2B21A7072
:101B1000F3E710BC704700BF00380140FA02002014
:101B2000C80200204E0200208002002038B505685F
:101B3000044632492846FEF70BFBD0B92379802BA7
:101B400009D12F4801F0E0FC2D4801F0A9FBBDE8C8
:101B5000384001F0DDBB812B04D12A4801F078FC2C
:101B60002848F2E7502B47D1274801F0E5FC2648EA
:101B7000EBE728462549FEF7EBFA98B92379802B45
:101B800004D1BDE838401E4801F0CCBC812B03D104
:101B90001C4801F06BFCE3E7502B2DD11A4801F0F3
:101BA000E7FCE4E728461A49FEF7D2FA30B9637930
:101BB0001548C380BDE8384001F0CCBC2846154923
:101BC000FEF7C6FA60B92379802B03D10C4801F0E7
:101BD00075FCB9E7812B0FD10A4801F051FCBFE732
:101BE00028460D49FEF7B4FA30B92379802BABD0E3
:101BF000812BB5D0502BBAD038BD00BF966F0008EE
:101C000014020020040200200C0200209A6F000839
:101C10009E6F0008A26F0008A66F0008BFB500F015
:101C2000C5F9FFF718FF1022002102A802F09FFD5E
:101C3000364B4FF480519A69354842F020029A6140
:101C40009A69012602F020020092009A9A69002502
:101C500042F004029A619B69002203F0040301939D
:101C6000019B00F02DFD4FF48053CDE90236022395
:101C7000274802A9274CCDE9045300F04BFC264B22
:101C8000204623604FF46023CDE902550495A560FA
:101C900025732575E3616560266100F0F1FA08B1EE
:101CA00072B6FEE70423049002A92046CDE902366D
:101CB00000F0A4F908B172B6FEE74FF41653174CC2
:101CC000174AC4E90200C4E900230C232061C4E9D7
:101CD0000530E061204601F08BF8054608B172B688
:101CE000FEE7104B104F197820463246394401F078
:101CF000C6FA0E4C2378002BFCD0384602A925707A
:101D000001F034FB02A8FFF711FFF3E700100240D7
:101D10000008014050020020002401408002002001
:101D200000380140FA020020C80200204E020020C4
:101D30000A4B82B09A6942F001029A619A6902F0F4
:101D400001020092009ADA6942F08052DA61DB699E
:101D500003F080530193019B02B0704700100240D2
:101D600010B5044686B01022002102A802F0FFFC44
:101D70002268104B9A421BD103F56C439A690E48B6
:101D800042F400729A619A6902A902F40072009208
:101D9000009A9A6942F004029A619B69302203F02A
:101DA00004030193019B0323CDE9022300F0B2FB5E
:101DB00006B010BD002401400008014010B50446E3
:101DC00086B01022002102A802F0D1FC22681B4B31
:101DD0009A4230D103F558439A69194842F4804237
:101DE0009A619A6902A902F480420092009A9A6963
:101DF000002442F004029A619B694FF4007203F0E0
:101E000004030193019B0223CDE9022303230593DD
:101E100000F080FB4FF48063094802A9CDE9023449
:101E2000049400F077FB25202246214600F0B8FA02
:101E3000252000F0E5FA06B010BD00BF00380140D3
:101E400000080140FEE7FEE7FEE7FEE7FEE7704719
:101E50007047704700F0BCB8014801F0ADB800BF52
:101E6000800200200120704708B502F00DFD162306
:101E700003604FF0FF3008BD08B502F005FD1623E2
:101E80000360FEE770B50D4614460E46731B9C4278
:101E900001DC204670BDAFF3008006F8010BF5E7CA
:101EA00070B50D4614460E46731B9C4201DC20465D
:101EB00070BD16F8010BAFF30080F5E74FF0FF306F
:101EC00070474FF4005300204B607047012070476B
:101ED000002070470B4A0346116810B509B90A493A
:101EE0001160106809490A4C0344091B8B4206D94A
:101EF00002F0CAFC0C2303604FF0FF3010BD1360EA
:101F0000FCE700BFFC020020500400200028002055
:101F10000004000070470000FFF7FCFF0B480C496D
:101F20000C4A002302E0D458C4500433C4188C4235
:101F3000F9D3094A094C002301E013600432A2429C
:101F4000FBD302F0A7FCFFF769FE704700000020FA
:101F5000E001002020740008E0010020500400206F
:101F6000FEE7000038B50E4B05461A784FF47A7339
:101F7000B3FBF2F30B4A1068B0FBF3F000F04EFA3B
:101F8000044658B90F2D09D8024629464FF0FF30B4
:101F900000F006FA2046044B1D6038BD0120FCE726
:101FA000100000200C00002014000020074A08B593
:101FB0001368032043F01003136000F0DFF90F20D3
:101FC000FFF7D0FFFFF7B4FE002008BD002002405D
:101FD000034A044B11681B780B441360704700BF21
:101FE0000003002010000020014B1868704700BF5C
:101FF000000300200368D86C70470000002373B50D
:10200000019390F824300446012B6CD0012380F812
:1020100024304D680268062D086805EB850322D838
:102020001F26556B053B9E4025EA060500FA03F383
:102030002B43536309288B6800EB40054FF00701E1
:1020400029D9D6681E3DA94026EA0101AB400B43C1
:10205000D360A0F11003012B25D90020002384F8C0
:10206000243002B070BD0C2D4FF01F0509D8166B3F
:10207000233B9D4026EA050500FA03F32B43136337
:10208000D8E7D66A413B9D4026EA050500FA03F3EE
:102090002B43D362CEE71069A94020EA0101AB408F
:1020A0000B431361D9E7114B9A4216D193681B0277
:1020B000D3D49368102843F400039360CDD10C4B24
:1020C0000C4A1B68B3FBF2F30A2253430193019BB2
:1020D000002BC2D0019B013BF8E7A36A012043F02B
:1020E0002003A362BAE70220BBE700BF002401403F
:1020F0000C00002040420F00002337B50193036815
:1021000004469A68D20702D5002003B030BD9A6811
:1021100042F001029A60144B144A1B68B3FBF2F3BD
:102120000193019BE3B9FFF75FFF054623689B68B6
:10213000DB07E9D4FFF758FF401B0228F6D92368D4
:102140009B6813F00103F1D1A26A012042F0100252
:10215000A262E26A84F8243042F00102E262D4E72B
:10216000019B013BDCE700BF0C00002040420F0058
:1021700010B590F824300446012B54D0012380F888
:102180002430FFF7B9FF002849D1A36A274A23F476
:10219000407323F0010343F48073A36223689342E6
:1021A00004D123494A6812F4702F2ED1A26A22F476
:1021B0008012A2625A68520541BFA26A22F44052BC
:1021C00042F48052A262A26A12F480521CBFE26AF8
:1021D00022F00602E262002284F824206FF002025C
:1021E0001A609A6802F46022B2F5602F13D10F4A88
:1021F000934205D1A2F58062526812F4702F0AD181
:102200009A6842F4A0029A6010BDA26A42F4801259
:10221000A2624A68CFE79A6842F48012F3E700238B
:1022200084F82430F0E70220EEE700BF00280140E8
:102230000024014038B5036804469A68D10701D4E8
:10224000002038BD9A6822F001029A60FFF7CCFEA8
:10225000054623689B68DB07F2D5FFF7C5FE401BE8
:102260000228F6D923689B68DA07F2D5A36A012011
:1022700043F01003A362E36A43F00103E362E0E783
:10228000F8B5044600286DD0836A23B9C36280F88C
:102290002430FFF765FD2046FFF7CCFFA36A13F05B
:1022A000100361D100285FD1A26A616822F48852CC
:1022B00022F0020242F00202E569A668A262227BD5
:1022C0002943B6F5807F41EA420136D0771E7D4230
:1022D0007D412D02277D012F06D182BBA269013AE3
:1022E00045EA423242F400652268B6F5807F5768BD
:1022F00027F4694745EA0705556097681D4D05EACB
:10230000070545EA0105956001D0012E02D1236938
:10231000013B1B05D56A25F470052B43D3629268F7
:10232000154B1340994213D10023E362A36A23F0B3
:10233000030343F00103A362F8BD3546CAE7A26A6E
:1023400042F02002A262E26A42F00102E262CBE7BE
:10235000A36A23F0120343F01003A362E36A43F07D
:102360000103E3620120E7E7A36A43F01003A362DD
:10237000F8E700BFFDF7E1FFFE0E1FFF074903026C
:10238000CA6803F4E06322F4E0621204120C1343FF
:1023900043F0BF6343F40033CB60704700ED00E0CF
:1023A000154B30B5DC68C4F30224C4F10703251DC6
:1023B000042B28BF0423062D4FF0FF3594BF0024C3
:1023C000033C05FA03F321EA0303A54022EA0502D0
:1023D000A340002843EA0203ACBF00F16040074A73
:1023E0004FEA0313DBB2ABBF00F5614000F00F0012
:1023F00080F80033135430BD00ED00E014ED00E030
:10240000002807DB01234109034A00F01F00834035
:1024100042F82130704700BF00E100E00138B0F120
:10242000807F0BD24FF0E023F021054A586182F8FB
:1024300023100020072298611A617047012070471D
:1024400000ED00E090F821200346022A06D0042285
:1024500082630120002283F8202070470268C06B4D
:10246000116821F00E011160116821F00101116065
:1024700001211A6C01FA02F24260002083F8211057
:10248000E8E7000010B590F82130022B03D00423B8
:102490008363012010BD03681A6822F00E021A60DF
:1024A0001A6822F001021A60184A93421FD01432AF
:1024B00093421ED0143293421DD0143293421DD049
:1024C000143293421DD0143293420CBF4FF4801348
:1024D0004FF080730E4A00245360012380F82130AE
:1024E000436B80F820407BB198472046D2E7012318
:1024F000F0E71023EEE74FF48073EBE74FF48053DF
:10250000E8E74FF48033E5E71846C3E708000240E8
:10251000000002402DE9F74F00221646614F624B42
:10252000DFF888C1DFF888E10D6835FA06F402D1DA
:1025300003B0BDE8F08F4FF0010808FA06F805EA8D
:10254000080438EA050576D14D68032D07D8013D0A
:10255000022D00F28180DFE805F091969C00122D9B
:1025600000F0948069D8112D00F08A80FF2C98BF6C
:1025700082464FF00F0988BF00F1040A4FEA860532
:10258000DAF8008088BF203D09FA05FB28EA0B082D
:1025900002FA05F548EA0505CAF80050D1F804A08A
:1025A0001AF0805F47D0BD6926F0030845F00105A9
:1025B000BD61BD6908F1804805F00105019508F588
:1025C000803806F0030B019D4FEA8B0BD8F80850BA
:1025D00009FA0BF925EA0909364DA8425DD005F53F
:1025E0008065A8425BD005F58065A8420CBF022536
:1025F000032505FA0BF545EA0905C8F808509D685A
:102600001AF4801F14BF2543A5439D60DD681AF4AA
:10261000001F14BF2543A543DD605D681AF4003F29
:1026200014BF2543A5435D601D681AF4803F14BFA5
:102630002543A5431D60013676E7DFF87C904D45C4
:102640000AD015D8754507D0A9F580394D4503D076
:10265000A9F580194D4589D18A68E2B1012A08BFE0
:10266000C0F810804FF0080218BFC0F814807DE752
:10267000DFF848904D45EFD06545ECE7CA6875E74F
:10268000CA68043272E7CA6808326FE7CA680C3257
:102690006CE700226AE7042268E70025A9E7012524
:1026A000A7E700BF00100240000401400000321004
:1026B000000012100008014000002210000031103C
:1026C0000AB1016170470904FBE700002DE9F341FD
:1026D000054638B30368DB0710D42B689F075ED428
:1026E0002B68190700F195802B685A0700F1C1800B
:1026F000E869002840F02C81002029E0904C6368B4
:1027000003F00C03042B07D0636803F00C03082BC1
:102710000AD16368DE0307D523689C03DDD56B68A7
:10272000002BDAD1012013E06B68B3F5803F12D1A2
:10273000236843F480332360FFF756FC0646236882
:102740009803CAD4FFF750FC801B6428F7D90320F4
:1027500002B0BDE8F0819BB9236823F48033236085
:10276000236823F480232360FFF73EFC064623689A
:102770009903B2D5FFF738FC801B6428F7D9E6E748
:10278000B3F5A02F236803D143F480232360CFE760
:1027900023F480332360236823F48023CBE7684C41
:1027A000636813F00C0F07D0636803F00C03082B69
:1027B00010D16368DA030DD423689B0702D52B6917
:1027C000012BAFD123686A6923F0F80343EAC203FF
:1027D000236085E72A695B4B6AB101221A60FFF723
:1027E00003FC064623689F07ECD4FFF7FDFB801B24
:1027F0000228F7D9ABE71A60FFF7F6FB0646236815
:1028000098077FF56DAFFFF7EFFB801B0228F6D925
:102810009DE7AA694A4E4B4BE2B10122C3F88024DE
:10282000FFF7E2FB0446736A9B070DD54FF4FA529B
:10283000454B1B68B3FBF2F3019300BF019B5A1E8B
:102840000192002BF9D14FE7FFF7CEFB001B0228C6
:10285000E9D97CE7C3F88024FFF7C6FB0446736A16
:102860009F077FF541AFFFF7BFFB001B0228F6D99A
:102870006DE7334CE369D80024D40127E36943F0C2
:102880008053E361E36903F080530093009B2F4E74
:102890003368D90518D5EB68012B26D1236A43F09C
:1028A00001032362FFF7A0FB41F288380646236A42
:1028B0009B073FD5002F3FF41BAFE36923F0805304
:1028C000E36115E70027E2E7336843F48073336080
:1028D000FFF78AFB80463368DA05DCD4FFF784FB18
:1028E000A0EB08006428F6D931E7ABB9236A41F2BE
:1028F000883823F001032362236A23F00403236250
:10290000FFF772FB0646236A9807D3D5FFF76CFBE7
:10291000801B4045F7D91AE7052B236A03D143F002
:1029200004032362BAE723F001032362236A23F03E
:102930000403B6E7FFF758FB801B4045B7D906E70D
:1029400000100240000042420C00002000700040D5
:102950002A4C636803F00C03082B3ED00022284B5E
:1029600002281A662CD1FFF73FFB0646236899011F
:1029700020D42B6AB3F5803F05D16268A96822F4A0
:1029800000320A436260696A62680B4322F474127F
:102990001343012263601A4B1A66FFF725FB0546B5
:1029A00023689A013FF5A8AEFFF71EFB401B0228E3
:1029B000F6D9CCE6FFF718FB801B0228D6D9C6E66D
:1029C000FFF712FB054623689B017FF595AEFFF7E5
:1029D0000BFB401B0228F6D9B9E601283FF4B8AE3C
:1029E00063682A6A03F4803191427FF49BAE6A6A7D
:1029F00003F4701393423FF47FAE93E6001002405D
:102A0000000042420D4A536803F00C01082912D11C
:102A10000B48C3F38341DB03405C09D55368094A83
:102A2000C3F340435043084AD35CB0FBF3F0704714
:102A3000064B584370470348704700BF00100240E0
:102A4000C26F000800127A00D26F000800093D0032
:102A50002DE9F0410D46044610B90120BDE8F08192
:102A6000444A136803F007038B4228D321688E077A
:102A700030D4CA0743D43F4A136803F00703AB427C
:102A800065D822683C4D12F0040F6CD1130706D5AF
:102A90006B68226923F4605343EAC2036B60FFF75B
:102AA000B1FF6B68354AC3F30313D35CD840344B92
:102AB0001860344B1868FFF755FA0020CEE713680A
:102AC00023F007030B431360136803F007038B42E3
:102AD000C3D1CBE7284B11F0040F1EBF5A6842F454
:102AE000E0625A60080742BF5A6842F460525A6076
:102AF0005A68A06822F0F00202435A60B9E762689F
:102B00001D4E012A33681AD113F4003FA5D0736813
:102B100041F2883823F0030313437360FFF764FA2C
:102B200007467368626803F00C03B3EB820FA2D010
:102B3000FFF75AFAC01B4045F3D903208EE7022A5B
:102B400002D113F0007FE1E713F0020FDEE7136814
:102B500023F007032B431360136803F00703AB4212
:102B60007FF47BAF8DE76B68E16823F4E0630B4390
:102B70006B608BE70020024000100240AA6F000843
:102B80000C00002014000020044B054A5B68C3F3CE
:102B90000223D35C034A1068D840704700100240FB
:102BA000BA6F00080C000020044B054A5B68C3F3B1
:102BB000C223D35C034A1068D8407047001002401B
:102BC000BA6F00080C00002003682DE9F341D90713
:102BD000054621D5364CE369DA0033D40126E36992
:102BE00043F08053E361E36903F080530193019B59
:102BF000304F3B68DB0527D5236A6A6813F44073BE
:102C000036D1236A6A6823F44073134323621EB1EA
:102C1000E36923F08053E3612868830706D52449DC
:102C2000AB684A6822F440421A434A6010F0100030
:102C30001BD01F4AE9685368002023F480030B432C
:102C4000536012E00026D3E73B6843F480733B6097
:102C5000FFF7CAF980463B68D805CDD4FFF7C4F921
:102C6000A0EB08006428F6D9032002B0BDE8F0818B
:102C700002F440729A42C4D001200F4A236AC2F87B
:102C80004004002023F44071C2F840042162D907B7
:102C9000B7D5FFF7A9F941F288380746236A9A07A2
:102CA000AFD4FFF7A1F9C01B4045F7D9DCE700BF5F
:102CB000001002400070004000004242026802F131
:102CC0000C0353E8003F23F490730C3242E80031C8
:102CD00002680029F2D102F1140353E8003F23F007
:102CE000010302F1140C4CE800310029F3D1036B0D
:102CF000012B0BD102F10C0353E8003F23F010032A
:102D000002F10C0C4CE800310029F3D1202380F8AB
:102D1000423000230363704710B504460368C1685E
:102D20001A6922F440520A431A6182680069D9681C
:102D30000243606921F4B05121F00C0102430A43BF
:102D4000DA605A69A16922F440720A435A610E4A54
:102D5000934215D1FFF728FF192343436268206887
:102D60009200B3FBF2F36422B3FBF2F102FB1133E6
:102D70001B013233B3FBF2F303EB0113836010BD8D
:102D8000FFF702FFE8E700BF00380140F7B505464E
:102D90000C4617461E462A68136834EA030301D11D
:102DA000002021E0701CF7D0FFF71EF9C01B8642FF
:102DB0001CD3DEB12B68DA685107ECD5802CEAD041
:102DC000402CE8D01A681207E5D5002401941A684F
:102DD000284601925B680193019BFFF76FFF082370
:102DE00001206B6485F8404003B0F0BD0320FBE791
:102DF00010B5044648B390F8413003F0FF021BB908
:102E000080F84020FEF7DAFF2423226884F841305E
:102E1000D368204623F40053D360FFF77DFF236877
:102E200000201A6922F490421A615A6922F02A029B
:102E30005A61DA6842F40052DA602023606484F850
:102E4000413084F84230606310BD0120FCE72DE979
:102E5000F843994690F841300446202B0E46174619
:102E60003FD100293FD0002A3DD0212300254564D1
:102E700080F84130FFF7B8F8A3688046B3F5805F6B
:102E8000A784E78403D123690BB935461E46E38C3A
:102E90009BB25BB94B46424640212046FFF776FF86
:102EA000202384F8413058B9BDE8F8834B464246A8
:102EB00080212046FFF76AFF20B1202384F84130AB
:102EC0000320F1E722684EB935F8023BC3F308034B
:102ED0005360E18C013989B2E184D8E716F8013BEF
:102EE000F6E70220E0E70120DEE77047704708B50B
:102EF0000023406AC385C384FFF7F8FF08BD70470D
:102F000090F8423007B5222B42D18168836AB1F52F
:102F1000805F02683FD1016900293FD15268C2F346
:102F2000080223F8022B8362C38D013B9BB2C38549
:102F3000002B2DD10268D16821F02001D160D16829
:102F400021F48071D160516921F001015161202289
:102F500080F842204363026B012A026828D1036390
:102F600002F10C0353E8003F23F0100302F10C0CB4
:102F70004CE800310029F3D11368DB0605D5019137
:102F80001368019353680193019B818DFFF7B7FF8D
:102F900003B05DF804FB39B9016929B95268D2B2AE
:102FA0001A70836A0133BEE7526802F07F02F7E7C6
:102FB000FEF786FDECE70000036873B51A68044667
:102FC0001607D9685D6908D1960668D58D0666D55D
:102FD00002B0BDE87040FFF793BF05F0010001F4B7
:102FE000907505435BD0D60705D5CD0542BF636C10
:102FF00043F001036364530704D518B1636C43F0D5
:1030000002036364960704D518B1636C43F00403AC
:103010006364150707D501F0200303431EBF636CEB
:1030200043F008036364636C002B32D0920604D52E
:103030008B0602D52046FFF763FF2668204673699A
:10304000626C03F0400302F0080253EA020522D04A
:10305000FFF734FE73695E0618D5226802F1140387
:1030600053E8003F23F04003143242E800310029C6
:10307000F3D1E06B50B1744B4363FFF703FA40B1F7
:10308000E06B436B02B0BDE8704018472046FFF785
:103090002DFF02B070BDFFF729FF6564F9E7206BD3
:1030A000012840F09480D50640F19180C80640F197
:1030B0008E80002201921A6801925A680192019A48
:1030C0005A6952064DD5E16B0A68526892B2002ADD
:1030D000DFD0A08D9042DCD9E2858A69202A36D0E3
:1030E00003F10C0252E8002F22F4807203F10C006D
:1030F00040E800210029F3D103F1140252E8002F27
:1031000022F0010203F1140040E800210029F3D16C
:1031100003F1140252E8002F22F0400203F11400E0
:1031200040E800210029F3D1202284F842202163C5
:1031300003F10C0252E8002F22F0100203F10C0000
:1031400040E800210029F3D1E06BFFF77BF902236F
:103150006363E38DA18DC91A89B22046FFF7CFFEC4
:1031600097E7E28DE08DA18D80B292B2002890D0D9
:10317000891A89B200298CD003F10C0252E8002F81
:1031800022F4907203F10C0545E800200028F3D1E9
:1031900003F1140252E8002F22F0010203F114059A
:1031A00045E800200028F3D1202284F84220206343
:1031B00003F10C0252E8002F22F0100203F10C057B
:1031C00045E800200028F3D102236363C5E7160613
:1031D00028D50D0626D594F84120212A7FF459AF31
:1031E000A168226AB1F5805F17D12169A9B932F8C7
:1031F000021BC1F3080159602262E28C013A92B2CB
:10320000E284002A7FF445AFDA6822F08002DA60B7
:10321000DA6842F04002DA603BE7511C2162127822
:103220005A60EAE750067FF534AF4A067FF531AFC2
:10323000DA68204622F04002DA60202384F8413028
:10324000FFF753FE25E700BFEF2E00080023C285DD
:10325000436422238285026980F8423081620368D8
:103260001AB1DA6842F48072DA605A69002042F0DA
:1032700001025A61DA6842F02002DA60704770B4E5
:1032800090F84260202E06D141B13AB10024046387
:1032900070BCFFF7DBBF022070BC70470120FBE76A
:1032A00030B587B00546FEF7C3FB044608B32A795C
:1032B0001149684601F0CCF91049EA8803A801F0E9
:1032C000C7F92B79EA88802B0CBF0C490C4903A85D
:1032D00001F0BEF92A680B492046FEF793FB6A46C7
:1032E00009492046FEF78EFB2046084903AAFEF74F
:1032F00089FB204607B030BDD46F0008DB6F0008A3
:10330000E06F0008E36F0008EC6F0008F36F00083F
:1033100070B50546A0B1FEF757FB044658B1FCF75F
:1033200021FF4FF0FF3382B221460D48FFF78FFD9A
:10333000204600F033F92846BDE87040FEF716B984
:103340000849094801F0CDFA0748FCF70BFFBDE832
:10335000704082B24FF0FF3303490148FFF777BD59
:1033600080020020F86F00081C0200202DE9F047C1
:1033700004460D46FCF7F6FE22460023C0B2204468
:10338000904204EB03011BD14FF00009204681F865
:103390000090FEF715FB0446D0B9FEF7DFF826498A
:1033A0000246264801F054F92448FCF7DBFEBDE84C
:1033B000F04782B24FF0FF3320492148FFF747BD65
:1033C00012F8016B202E1EBF0133DBB20E70D7E75F
:1033D0001C49FEF7FCFA1C4980462046FEF7F7FA26
:1033E0001A4907462046FEF7F2FAC5F8009006464D
:1033F0004046FEF729FB28B1D8F8100010B101F0C3
:10340000BFF928603846FEF71FFB30B1386920B19C
:103410001022002101F050F828713046FEF714FB0D
:1034200020B1306910B100F0ADF868712046BDE8F8
:10343000F047FEF79BB800BF117000081C02002087
:103440008002002030700008387000083F700008CB
:1034500038B1054B0360812303710023C3801846F4
:1034600070470120704700BF4470000830B100234E
:10347000812203600271C3801846704701207047A3
:103480007FB50546A8B1002301260393052301A9B2
:103490000948CDE90136FEF7B1FD0748FEF768FEA1
:1034A000044630B90448FEF7A5FDE880204604B084
:1034B00070BD0124FAE700BF500200207FB5054629
:1034C000E8B100230393042301260DEB03010D480B
:1034D000CDE90136FEF792FD0A48FEF749FE0446A3
:1034E00068B90848FEF786FD4FF4FA7340F6DB72C0
:1034F0004343B3FBF2F3EB80204604B070BD0124DC
:10350000FAE700BF5002002038B1054B036080236A
:1035100003710023C380184670470120704700BF25
:103520004470000830B10023802203600271C38020
:10353000184670470120704738B1054B036050238F
:1035400003710023C380184670470120704700BFF5
:10355000976F000808B538B182794FF4805103485D
:10356000FFF7AEF8002008BD0120FCE7000801408D
:1035700030B10023502203600271C38018467047A7
:10358000012070470A22002100F096BF024B01463D
:10359000186800F02BB800BFDC010020024B014688
:1035A000186801F0BBB900BFDC01002070B50E4EF9
:1035B0000C463168054611B901F044F930602146E6
:1035C000284601F03FF9431C0AD0C41C24F0030430
:1035D000A04207D0211A284601F034F9013001D168
:1035E0004FF0FF34204670BD080300202DE9F8435A
:1035F000CD1C25F0030508350C2D38BF0C25002DFA
:10360000074601DBA94205D90C2300263B60304662
:10361000BDE8F883DFF8D08000F068F8D8F8003013
:103620001C465CBB29463846FFF7C0FF431C0446D6
:1036300055D1D8F800402646002E45D1002C48D060
:1036400023683146384604EB030901F0FBF8814555
:103650003FD1216838466D1A2946FFF7A7FF013090
:1036600037D023682B442360D8F80030002B38D0A3
:103670005A68A2422BD100225A600FE02268521BE6
:103680001FD40B2A17D96119A342256018BF5960AE
:10369000636808BFC8F8001062514B60384604F1F7
:1036A0000B0600F029F826F00706231DF21AAED00B
:1036B0009B1BA350ABE7A3426268DDD1C8F8002092
:1036C000ECE723466468ACE734467668B4E7134613
:1036D000CCE70C2338463B6000F00EF897E72560F6
:1036E000DCE75B60FFDE00BF04030020014801F05F
:1036F000F6B800BF4C040020014801F0F1B800BF4B
:103700004C040020024B0A460146186800F002B83B
:10371000DC0100202DE9F041804614460E4621B917
:103720001146BDE8F041FFF761BF2AB901F0F6F894
:1037300025462846BDE8F08102F040F9844207465C
:1037400002D8B4EB500F12D821464046FFF74EFF87
:1037500005460028EDD0BC422246314628BF3A46F5
:1037600001F0C7F83146404601F0D8F8E1E73546A8
:10377000DFE72DE9F0410F46904601F0EFFF0446E8
:103780000D46B8F1000F11D0C7F30A53C3F16B0314
:10379000002B0BDD00241B0503F17F5505F54015BB
:1037A00022462B46FCF7A2FE04460D46204629463B
:1037B000BDE8F081000000002DE9F04F9FB01792A6
:1037C000002204461A920D464FF000084FF00009FF
:1037D0000A46199211782B294AD038D80D2932D8A7
:1037E000082932D800293BD000220E92199E327847
:1037F000302A40F0B280727802F0DF02582A6ED18F
:1038000002930E9B204601931AAB00938C4A1BAB8C
:1038100019A901F033F910F00F07054605D0062F5E
:1038200028D10023013619960E93179B002B40F0E8
:10383000A0850E9BCBB1424609F1004310461946C4
:103840001FB0BDE8F08F2029CED10132C1E72D296C
:10385000CAD101210E91511C19915278002AC5D16B
:10386000179B1995002B40F0828542464B46E5E7B1
:103870000021EFE71A9A3AB135211CA802F05AF854
:1038800020461A9901F03EFC013F1B9A042F06D8EE
:10389000DFE807F014031D201400DDE91C89E905A9
:1038A00048BF49F0004929F000431B0D1B05002BC0
:1038B000BBD100F0E9FF22230360B6E702F23342F6
:1038C000DDE91C8323F4801343EA0259E7E7DFF8BC
:1038D0007491E4E76FF000494FF0FF38DFE7199B80
:1038E0005A1C19925B78302BF9D0002B9DD0012304
:1038F0004FF0000A0A22D3460593199BCDF828A061
:103900000B9319980678A6F13003D9B2092926D964
:1039100001224D4900F04FFF002830D000203246F0
:1039200003465E460890652A01D0452A13D11EB988
:10393000059A024394D00026199D6A1C19926A7850
:103940002B2A74D02D2A78D04FF0000CA2F1300130
:1039500009297FD9199500279EE00023C8E7BBF10C
:10396000080FD8BF0A9900F10100D6BF02FB01334E
:1039700002FB0A3A0A930BF1010B1990C1E7199B5C
:103980005A1C19925A78BBF1000F37D05E46089046
:10399000A2F13003092B12D90123C4E7199B01308E
:1039A0005A1C19925A78302AF8D0A2F13103082B08
:1039B00000F2E484089000200646199B0B93303AED
:1039C00000F1010314D0089900EB060C194408918A
:1039D00033460A21634513D13318082B06F101063B
:1039E00006441ADC0A230A9903FB01230A930023E5
:1039F000199A1846511C19915278C9E75846D2E7CE
:103A0000082B03F1010303DC0A9F4F430A97E1E708
:103A1000102BD8BF01FB0AFADCE7102EDCBF0A230B
:103A200003FB0A2AE3E700230893012380E74FF012
:103A3000000CAA1C1992AA7888E74FF0010CF8E74D
:103A4000587000080000F07F47700008199A511C58
:103A500019915278302AF9D0A2F1310108293FF6A4
:103A60007AAF303A0992199A0C92199A571C199701
:103A70005278A2F1300EBEF1090F38D90C997F1A95
:103A8000082F44F61F6703DC09998F42A8BF0F4631
:103A9000BCF1000F00D07F42002E4FD105990143A9
:103AA0007FF4C3AE002B7FF4DBAE692A29D026DC7D
:103AB000492A26D04E2A7FF4D3AE9A4919A801F09C
:103AC0001FFA00283FF4CCAE199B1B78282B2FD16E
:103AD00095491CAA19A801F027FA052828D11D9B91
:103AE000DDF8708043F0FF4949F4E0099DE60A21C2
:103AF000099F01FB0721A1F130020992B5E76E2A67
:103B0000D9E78A4919A801F0FBF900283FF4A8AECB
:103B1000199B8749013B19A8199301F0F1F910B9D4
:103B2000199B013319934FF00008DFF808927CE6E7
:103B3000814800F0EDFE8046894676E6089BBBF1A1
:103B4000000F08BFB346FB1A102E0A98354609939A
:103B5000A8BF1025FCF750FC092E8046894613DDCE
:103B6000764B03EBC50353E91223FCF7BFFC8046F9
:103B700050468946FCF740FC02460B464046494603
:103B8000FCF7FEFA804689460F2E36DC099B002B97
:103B90003FF44BAE22DD162B09DC6849424601EBAF
:103BA000C3014B46D1E90001FCF7A0FCC3E7099A29
:103BB000C6F12503934220DB604CC6F10F0604EBEF
:103BC000C6014246D1E900014B46FCF78FFC099B38
:103BD0009E1B04EBC604D4E90023E5E7099B1633DA
:103BE0000BDB089B4046DF1B544B494603EBC707E2
:103BF000D7E90023FCF7A4FD9DE7099B751B1D4435
:103C0000002D70DD15F00F030AD04C49424601EB40
:103C1000C301D1E900014B46FCF768FC80468946A8
:103C200035F00F054DD0B5F59A7F22DD0026B3465D
:103C30000B96089622234FF00008DFF8F8902360D7
:103C40000B9B002B3FF4F1AD20461A9901F05AFA74
:103C50002046089901F056FA5946204601F052FADA
:103C600020460B9901F04EFA3146204601F04AFAFF
:103C7000DBE5334B40460593002349469A462D1118
:103C8000012D21DC0BB1804689462D49A9F15479DB
:103C900001EBCA014246D1E900014B46FCF726FC84
:103CA000244B0A460B40274980468B42BED8A1F5DB
:103CB00080118B4286BF4FF0FF38DFF88C9002F105
:103CC0005479002305937BE0EA0705D5059BD3E9EA
:103CD0000023FCF70BFC0123059A0AF1010A0832C4
:103CE0006D100592CCE7ECD06D4215F00F020AD0B2
:103CF000124B404603EBC2034946D3E90023FCF7CD
:103D00001FFD804689462D11DBD01F2D1EDD0026AC
:103D1000B3460B96089622234FF000084FF0000997
:103D200023608DE7527000086C700008497000082D
:103D30004C7000080000F07F15740008B87200088D
:103D4000907200080000A07CFFFFEF7F15F01003C9
:103D500018BF6A234046059349460023DFF8C8A2EE
:103D6000EA0704D5DAE90023FCF7C0FB01236D1054
:103D70000AF1080AF4D10BB180468946059BBBB114
:103D8000C9F30A52C2F16B03002B494610DD1F2B09
:103D900040F32881342BD8BF4FF0FF334FF0000899
:103DA000CFBF4FF05C79C2F14B02934003EA0109A7
:103DB0000022002340464946FCF700FE0028A6D119
:103DC0000A9B5A460093204633460B9901F002FAAB
:103DD0000B9000283FF42AAF0026099A089B002A7E
:103DE000A3EB0703A8BF0023B346129322EAE273B2
:103DF00016930B9B2046596801F044F9089000285F
:103E00003FF418AF0B9B0C301A6903F10C0102321E
:103E1000920000F06EFD1CAB01931BAB0093424679
:103E20004B462046CDF83080CDF83C9001F0FEFCAA
:103E30001A9000283FF4FEAE0121204601F062FAFC
:103E4000834600283FF4F6AE1B9F1C9A002FABBFA1
:103E5000129B169B07EB030ADD1B059BA8BF169D53
:103E6000A7EB03071744714B07F1FF37B8BFDDF825
:103E700048A09F42C2F1360280F2C780DB1B1F2B95
:103E80004FF00101A2EB030200F3B38001FA03F348
:103E90001393002310930AEB0207059BBA451544C0
:103EA0001D445346A8BF3B46AB42A8BF2B46002B40
:103EB000C2BFFF1AED1AAAEB030A129B002B17DDF3
:103EC00059461A46204601F0DBFA834600283FF4A3
:103ED000B1AE01461A9A204601F02AFA0A9000284B
:103EE0003FF4A8AE20461A9901F00CF90A9B1A93E8
:103EF000002F00F38F80099B002B08DD2046169AC7
:103F0000089901F0BDFA089000283FF493AE002D07
:103F100008DD2A462046089901F00CFB089000288D
:103F20003FF488AEBAF1000F08DD594652462046EC
:103F300001F000FB834600283FF47CAE2046089A3F
:103F40001A9901F07FFB064600283FF473AE002566
:103F5000C3685946C5600A9301F058FBA8426BDA62
:103F60000A9B53EA080340F08F80C9F31303002B28
:103F700040F08A8029F000431B0D1B05B3F1D66F7A
:103F800040F28280736913B93369012B7CDD3146BD
:103F90000122204601F0CEFA5946064601F036FBD2
:103FA000002871DD05994B46214A002900F08D80DB
:103FB00002EA0901B1F1D66F00F38780B1F15C7FAD
:103FC0007FF7A9AE404649461A4B0022FCF78EFA0D
:103FD000174B80460B408946002B7FF435AE2223D9
:103FE000236031E64FF0FF3202FA03F303EA0808D8
:103FF000DEE6C7F17F4707F57F0707F57B47E23726
:1040000001FA07F31093139145E70023109301235E
:10401000139340E73A4620461A9901F08BFA1A901A
:1040200000287FF468AF05E68070000802FCFFFFFF
:104030000000F07F00005039CA4665D10A9AC9F3E2
:10404000130352B39E4A93422AD1059B4146FBB1CA
:104050009C4B4FF0FF3209EA0303B3F1D46F1AD837
:104060001B0DC3F16B0302FA03F3994218D1964B6F
:104070009A4502D101313FF4DDAD4FF00008914B7C
:104080000AEA030303F58019059B002B9AD1DBE5AF
:104090004FF0FF33E9E71346E7E753EA080381D01F
:1040A000109BE3B113EA0A0FEED00A9B4046494643
:1040B000059AC3B1FFF75DFB02460B460C980F99BA
:1040C000FCF75EF880468946DEE71340A3F58013CF
:1040D0006FEA13594FF0FF386FEA0959D4E7139B81
:1040E00013EA080FE0E7FFF744FB02460B460C9883
:1040F0000F99FCF743F80022002380468946FCF71D
:104100005DFC0028C0D006E65946304601F0E4FBCD
:1041100002460B46CDE9102300224FF08043FCF706
:1041200061FC00286FD00A9B002B7CD1B8F1000FF6
:1041300059D1C9F31303002B7BD1DDE91001002213
:10414000624BFCF745FC00285AD1DDE91001002242
:104150005F4BFCF7CBF905460F4607F10043069588
:104160000793DDE90623CDE91023564B554A0AEAA9
:1041700003031393574B0AEA02029A4240F0B080BD
:10418000AAF154794046494601F0E8FADDE90623F0
:10419000FCF7ACF942464B46FBF7F2FFDFF824A1EF
:1041A0004D4A01EA0A0A9245804648D90F9A464B81
:1041B0009A4203D10C9B01333FF43CAD4FF0FF38E2
:1041C000DFF8049120461A9900F09CFF20460899D8
:1041D00000F098FF5946204600F094FF31462046F3
:1041E00000F090FF05E6B8F1010F03D1B9F1000F1F
:1041F0003FF491AD0022394B0A9DCDE9062316E02C
:104200000A9D334FA9E7324B0022DDE91001FCF78C
:104210006DF90A9B05460F46002B9ED002460B46C1
:10422000CDE906239DE70022284BCDE90623274F41
:1042300097E70022294B4546CDE90623F7E701F130
:104240005479059BCA46002BBCD129F00043139A30
:104250001B0D1B059A42B5D128463946FCF73EFC9A
:10426000FCF716F902460B4628463946FBF786FF4F
:104270000B460246C9F3130ACDE90C230A9B4AEA0E
:10428000080A5AEA030A6CD009A3D3E90023FCF711
:104290009FFB00287FF4D8AC07A3D3E90023DDE916
:1042A0000C01FCF7B3FB00288CD0CDE4AFF3008009
:1042B0009535A094FFFFDF3F35E5AF350000E03FC7
:1042C000FFFF0F000000F07FFFFFEF7F0000F03FD7
:1042D0000000E03F0000E07FFFFF9F7C0000F0BF98
:1042E000059B33B3139BB3F1D46F22D828A3D3E932
:1042F000002328463946FCF775FBA0B1394628460D
:10430000FCF7CCFB012838BF0120FCF775F80A9BAD
:1043100005460F4603BB01F1004314901593DDE9F8
:104320001423CDE91023119B139A03F1D6639B1A32
:1043300011930C980F99DDE9108901F00FFA0246EC
:104340000B4640464946FCF7D1F80C9A0F9BFBF709
:1043500017FF8046894674E702460B46CDE91423D1
:10436000DDE70DA3D3E90023FCF732FB9BE7002335
:104370000E93199B179A1360FFF75BBA652A3FF4F7
:1043800052AB452A3FF44FAB0123FFF787BB00BF79
:104390000000C0FFFFFFDF419535A094FFFFCF3F36
:1043A0000A4601460248034B0068FFF705BA00BF02
:1043B000DC01002024000020012B2DE9F047864677
:1043C000904601D0242B06D900F05EFA1623036034
:1043D0000020BDE8F0870D4635482A4615F8014B08
:1043E000065D16F00806F8D12D2C2ED101262C786A
:1043F000951C002B57D0102B09D1302C07D12A78CF
:1044000002F0DF02582A49D110236C7802350022CD
:1044100006F1004C0CF1FF3CBCFBF3F9104603FB2A
:1044200019CAA4F13007092F14D83C46A34220DD55
:10443000571C07D0814519D301D1A24516DB0122B3
:1044400000FB034015F8014BEBE72B2C04BF2C7845
:10445000951CCEE7A4F14107192F01D8373CE5E7B9
:10446000A4F16107192F04D8573CDFE74FF0FF3262
:10447000E8E7531C08D122236046CEF80030B8F19B
:10448000000FA6D0691E06E006B14042B8F1000F49
:104490009FD0002AF6D1C8F800109AE73024002BEC
:1044A000B5D10823B3E7302CA9D00A23AFE700BF6A
:1044B000A9700008FFF780BF13460A46014602486C
:1044C0000068FFF779BF00BFDC010020002310B5B2
:1044D0000446C0E90033C0E9043383608181436648
:1044E000C2818361194608225C3000F040F90D4B0F
:1044F000246263620C4BA3620C4BE3620C4B23639C
:104500000C4B9C4206D003F16802944202D0D03397
:104510009C4205D104F15800BDE8104000F0DEB91E
:1045200010BD00BFE54600080B47000843470008E0
:10453000674700080C030020024A0349034800F0C3
:1045400069B800BF18000020016700089001002032
:1045500041680C4B10B59942044601D002F0D0F8E6
:10456000A168094B994202D0204602F0C9F8E168DF
:10457000064B994204D02046BDE8104002F0C0B876
:1045800010BD00BF0C03002074030020DC030020DA
:1045900010B50B4B0B4C0C4A20461A60042100222C
:1045A000FFF794FF04F1680001220921FFF78EFF55
:1045B00004F1D0000222BDE810401221FFF786BFAF
:1045C000440400200C03002039450008014800F095
:1045D00086B900BF4D040020014800F081B900BF3A
:1045E0004D04002010B50446FFF7F0FF236A1BB10D
:1045F000BDE81040FFF7F0BF044B2362044B1B687B
:10460000002BF5D1FFF7C4FFF2E700BF51450008CA
:10461000440400202DE9F843074688461446002646
:10462000D4E90195B9F1010905D52468002CF7D129
:104630003046BDE8F883AB89012B07D9B5F90E30B8
:10464000013303D029463846C04706436835E9E7B9
:104650000EB46FF0004100B59CB01DAB0290069007
:10466000079104910848094953F8042B0591006803
:1046700002A9019301F012FA0022029B1A701CB0E9
:104680005DF804EB03B07047DC0100200802FFFF77
:104690000EB44FF4017230B59CB01FAC54F8045BFB
:1046A000ADF8142002900690FBF75CFD0B4B0390D5
:1046B0000B9300230F9314934FF6FF730790084852
:1046C000ADF816302A46234602A90068019401F08D
:1046D0003DFB1CB0BDE8304003B070470747000801
:1046E000DC01002010B50C46B1F90E1000F098F86E
:1046F0000028ABBF636DA3891B1823F48053ACBFA4
:104700006365A38110BD002070472DE9F0411F466D
:104710008B890546DB050C46164605D5022300228B
:10472000B1F90E1000F06AF8A389324623F48053E1
:10473000A38128463B46B4F90E10BDE8F04100F0D5
:1047400091B810B50C46B1F90E1000F057F8431CA3
:10475000A38915BF606523F4805343F48053A3817C
:1047600018BFA38110BDB1F90E1000F037B8034691
:104770000244934200D1704703F8011BF9E700009F
:10478000024B0146186800F003B800BFDC010020AE
:1047900070B5044608460D46FBF7E4FC461C31465E
:1047A0002046FEF723FF044618B13246294600F0A2
:1047B000A0F8204670BD10B56AB10139841810F810
:1047C000012B11F8013F9A4203D1A04201D0002AE7
:1047D000F5D1D01A10BD1046FCE7000038B5002313
:1047E000054D044608462B60FDF768FB431C02D1CB
:1047F0002B6803B1236038BD4804002038B5044657
:10480000084611460022054D2A601A46FDF760FB56
:10481000431C02D12B6803B1236038BD480400203B
:1048200038B50446084611460022054D2A601A464E
:10483000FDF728FB431C02D12B6803B1236038BD70
:104840004804002038B50023054D044608462B6077
:10485000FDF740FB431C02D12B6803B1236038BD38
:104860004804002038B50446084611460022054D8C
:104870002A601A46FDF714FB431C02D12B6803B1D2
:10488000236038BD48040020014B1868704700BF02
:10489000DC01002070B500260C4D0D4C641BA410EB
:1048A000A64209D102F04CFB00260A4D0A4C641BBB
:1048B000A410A64205D170BD55F8043B98470136B7
:1048C000EEE755F8043B98470136F2E71874000804
:1048D00018740008187400081C74000870477047AA
:1048E0007047034611F8012B03F8012B002AF9D178
:1048F00070470A44914200F1FF3300D1704710B570
:1049000011F8014B914203F8014FF9D110BD00009D
:1049100000200149704700BF0000F87F38B5054608
:10492000002940D051F8043C0C1F002BB8BFE418FC
:10493000FEF7DCFE1C4A136833B963601460284636
:10494000BDE83840FEF7D8BEA34208D92068211838
:104950008B4201BF19685B6809182160EDE71A46B0
:104960005B680BB1A342FAD911685018A0420BD171
:1049700020680144501883421160E0D118685B68D8
:10498000084410605360DAE702D90C232B60D6E7A5
:10499000206821188B4201BF19685B6809182160E3
:1049A00063605460CBE738BD0403002003692DE940
:1049B000F043B3EB611F00F114044FEA611246DDCE
:1049C00011F01F0104EB830604EB82050CD129468C
:1049D00000F11007B14235D39B1A9B00EA1E9642A4
:1049E00038BF0023234415E0A14654F82270C1F1DA
:1049F0002008CF4005F1040E7645F44616D89A1AE1
:104A00009200043A0135AE4238BF0022A318A750E5
:104A100007B10433A342A3EB040208BF00234FEA0B
:104A2000A202026108BF4361BDE8F083DCF800C068
:104A30000CFA08FC4CEA070749F8047B5EF8047B93
:104A4000CF40D9E751F804CB47F804CFC2E723465B
:104A5000E0E7A0F13003092B02D82038C0B270473C
:104A6000A0F16103052B01D84738F7E7A0F1410316
:104A7000052B01D82738F1E7002070472DE9F04FCA
:104A800081468A4617460A6885B002F1020BC2F1D8
:104A9000FF2202F57F020293FE3202EB0B03D8469F
:104AA0001BF8010B01933028F7D0FFF7D2FF044623
:104AB000002838D101224046A749FFF77CFE064670
:104AC000002869D198F801005D46FFF7C2FF002871
:104AD00064D05A4610789046302802F10102F9D08D
:104AE000FFF7B7FF0123B0FA80F45E466409019333
:104AF0004246154628780132FFF7ABFF0028F8D16F
:104B0000012228469449FFF756FE78B946B96E1C33
:104B10003246154628780132FFF79BFF0028F8D16E
:104B2000731B9E0004E000242646E1E7002EF7D127
:104B30002B7803F0DF03502B3DD16B782B2B2FD03C
:104B40002D2B31D04FF0000B691C0878FFF781FF47
:104B5000421ED2B2182A2ED8A0F1100211F8010F6D
:104B6000FFF777FF00F1FF3C5FFA8CFCBCF1180FF8
:104B70001DD9BBF1000F00D052421644CAF80010F4
:104B8000DCB1019B002B14BF4FF000084FF006086A
:104B9000404605B0BDE8F08F454626460124C7E7EC
:104BA0004FF0000BA91CD0E74FF0010BFAE70A23E6
:104BB00003FB0200D0E72946E0E72146A5EB080306
:104BC000013B072B0ADC484600F05CFA044640B97A
:104BD0000246E421614B624801F054FE01315B1052
:104BE000EFE700239B4600F1140ACDF804A0A84586
:104BF00044D3DDF80480584648F804BBA8EB0A0803
:104C00004FEAA80222614FEA421800F02DFB3D68EE
:104C1000A8EB0008A84559DDA8EB05084146204649
:104C200000F0ABFE8346B8B14FF0010B08F1FF3343
:104C300059115AF8211003F01F020BFA02F20A422E
:104C40000AD05B4506DD2046A8F1020100F095FE82
:104C5000002838D14FF0020B41462046FFF7A6FE50
:104C60004644BB68B34241DA2146484600F04AFA5E
:104C700000230E9A4FF0A308136089E715F8012D61
:104C80002E2A14D0202B06D1019B43F804BB4FF0F1
:104C9000000B01935B4628780393FFF7DAFE039B32
:104CA00000F00F0098404BEA000B04339FE7A84543
:104CB000E8D80122284628490393FFF77CFD039B8F
:104CC0000028DFD193E74FF0030BC5E70BDAA5EB24
:104CD000080821464246484600F02CFC0446A6EB54
:104CE000080600F1140A4FF0000BBAE77B68B342E4
:104CF00074DD9E1BB54235DCFB68022B23D0032BF1
:104D000025D0012B15D1B54213D1012D0BD17B68D4
:104D1000029A4FF06208136001232361CAF8003041
:104D20000E9B1C6034E72046691E00F026FE00281A
:104D3000EDD12146484600F0E5F900230E9A4FF0E8
:104D40005008136024E70F9B002BF2D1DFE70F9B85
:104D5000002BDCD1EDE700BF47700008AF71000801
:104D6000C071000806F1FF38BBF1000F33D1B8F174
:104D7000000F04D04146204600F0FFFD834601238A
:104D80004FEA681208F01F0803FA08F34FF0020810
:104D90005AF8222031461342204618BF4BF0020B2E
:104DA000AD1BFFF703FE7E68BBF1000F4AD0FB6826
:104DB000022B16D0032B18D0012B09D11BF0020FA8
:104DC00006D0DAF800304BEA030B1BF0010F0FD1CD
:104DD00048F0100836E04FF0010BD0E74FF0010823
:104DE000E2E70F9BC3F101030F930F9B002BEFD062
:104DF000D4F810B004F114024FEA8B03019300239E
:104E000002EB8B00944652F8041BB1F1FF3F1ED019
:104E10000131CCF80010B8F1020F04F114023DD1B9
:104E20003B68013BAB420BD10123691105F01F0523
:104E300003FA05F552F821301D4218BF4FF0010862
:104E400048F020080E9B1C60029B1E60A0E690426A
:104E500042F8043CD6D8A268934517DB61684846FF
:104E6000013100F00FF9824618B9024684211A4B2D
:104E7000B1E6226904F10C01023292000C30FFF716
:104E800038FD2146484600F03DF954462269511C40
:104E90002161012104EB82025161BCE7216959457E
:104EA0000BDD01212046FFF781FDBB680136B342CF
:104EB000FFF6DAAE4FF00108C2E715F01F05F9D092
:104EC000019BC5F120051A4452F8040C00F0CCF9FE
:104ED000A842E6DBEEE700BFAF710008C2F10802AE
:104EE000920070B5C2F120064368046803FA06F523
:104EF0002C43D340046040F8043F8842F4D370BD93
:104F000030B50368013311F8014B14B90360012077
:104F100030BD13F8012BA2F14105192D98BF2032A5
:104F2000A242F0D00020F3E72DE9F04F00250B68F6
:104F300082465E1102EB860613F01F0318BF04368B
:104F4000371F9046B9463C46AB4687B0016801938F
:104F500046F8045C02954A784B1C039342B3104612
:104F600005910492FFF775FD00284FD1049A059929
:104F7000202A18D8029B9B4513DD4C4506D2072DED
:104F800004DC2A4649462046FFF7A8FF444550D98D
:104F90000023A4F1040944F8043C1D464C46CDF816
:104FA00008B00399D7E7292A55D10231CAF8001071
:104FB000BBF1000F4FD04C4506D2072D04DC2A462A
:104FC00049462046FFF78AFF444534D92346A8F1D5
:104FD000040253F8041B9F4242F8041FF9D23B1B02
:104FE00023F003030433033E0134A64238BF0423F5
:104FF0000022434443F8042B9F42FBD23B681BB979
:10500000474526D101233B60052025E00135082DC9
:105010000BF1010B06DD4445C3D90023012544F8FB
:10502000043C043C226800F00F0040EA02102060BB
:10503000B7E70825B5E7019B002BDFD04FF0FF3223
:10504000C3F12003DA4056F8043C134046F8043C10
:10505000D4E7043FD2E7042007B0BDE8F08F82B068
:1050600001B901A942B14BB113780B601278101E3F
:1050700018BF012002B070471046FBE76FF0010037
:10508000F8E7000070B5C66904460D4676B91020F1
:10509000FEF77CFA0246E06120B96B21174B1848F5
:1050A00001F0F0FBC0E901660660C660E669F368DE
:1050B00083B1E369DB6853F82500B8B9012101FA2F
:1050C00005F6721D2046920001F0FAFB60B1C0E9BE
:1050D00001560EE021220421204601F0F1FBE36994
:1050E000F060DB68002BE4D1002070BD026843F85B
:1050F00025200023C0E90333F7E700BF2072000832
:105100003772000870B5C66905460C4676B910209E
:10511000FEF73CFA0246E86120B98F21084B0948A6
:1051200001F0B0FBC0E901660660C6603CB1EB6906
:105130006268DB6853F82210216043F8224070BD9A
:1051400020720008377200082DE9F04107460C462E
:105150001E4600200D6901F1140CDCF8003001300E
:1051600099B202FB01611E0C0B0C02FB063389B2E3
:1051700001EB034185424FEA13464CF8041BECDC7B
:105180000EB3A368AB4219DC616838460131FFF702
:1051900079FF804628B90246BA210C4B0C4801F031
:1051A00071FB226904F10C01023292000C30FFF70E
:1051B000A0FB21463846FFF7A5FF444604EB8503D4
:1051C00001355E6125612046BDE8F081AF710008C0
:1051D000377200082DE9F843154609221F460833A7
:1051E0000C4693FBF2F30646012200219A4209DBAA
:1051F0003046FFF747FF40B90246D321184B194804
:1052000001F040FB52000131F0E7089B092D43619A
:105210004FF00103036116DD04F10909C8462C446F
:1052200018F8013B01460A223046303BFFF78CFF5D
:10523000A045F5D1A5F108044C442D1B6319BB42D0
:1052400004DBBDE8F88309250A34F6E714F8013BCE
:1052500001460A223046303BFFF776FFEEE700BFFB
:10526000AF71000837720008020C12040346CAB975
:105270000304102013F07F4F04BF1B02083013F00B
:10528000704F04BF1B01043013F0404F04BF9B005C
:105290000230002B05DB13F0804F00F1010008BF46
:1052A000202070470020E5E70368024613F007005E
:1052B0000BD0D90721D4980749BF5B089B08012070
:1052C00013605CBF02201360704799B209B91020C7
:1052D0001B0CD9B209B908301B0A190704BF1B09F6
:1052E0000430990704BF9B080230D90703D45B0838
:1052F00000F1010003D013607047002070472020A8
:105300007047000010B50C460121FFF7BBFE0246B6
:1053100028B940F24511044B044801F0B3FA0123C7
:105320004461036110BD00BFAF710008377200080F
:105330002DE9F04F91460A69D9F810300C469A428F
:10534000BEBF0B464C4699462769D9F810A0A36802
:10535000616807EB0A06B34285B0B8BF0131FFF7B9
:1053600091FE30B902464FF4B171434B434801F00E
:1053700089FA00F114052B46002205EB8608434507
:1053800021D304F1140303EB870709F1140303EBA2
:105390008A0202923A1B153A22F00302043204F107
:1053A00015018F4238BF04220192029A03939A4258
:1053B0000CD8002E03DD58F8043D002B5AD00661AE
:1053C00005B0BDE8F08F43F8042BD8E7B3F800A090
:1053D000BAF1000F23D0A9464FF0000C04F1140ECF
:1053E0005EF8042BD9F800101FFA82FB89B20AFB81
:1053F0000B116144D9F800C0120C4FEA1C4C0AFB97
:1054000002C202EB114289B241EA024177454FEAFA
:10541000124C49F8041BE3D8019A45F802C0039ADC
:105420000433B2F80290B9F1000F21D0AE464FF02C
:10543000000A296804F1140CBCF800B0BEF8022080
:1054400089B209FB0B22524441EA02414EF8041B87
:105450005CF8041B4FEA114ABEF80010674509FBCF
:105460000A1101EB12414FEA114AE5D8019AA950FD
:1054700004359AE7013E9CE7AF71000837720008D7
:105480002DE9F843154612F0030206460F4607D0F1
:10549000254C013A002354F82220FFF755FE074619
:1054A000AD103DD0F4697CB91020FEF76FF80246CC
:1054B000F06128B940F2B3111C4B1D4801F0E2F92C
:1054C000C0E901440460C460D6F81C80D8F80840E4
:1054D0004CB940F271213046FFF714FF0023044617
:1054E000C8F8080003604FF00009EB070AD53946F9
:1054F00022463046FFF71CFF804639463046FFF70C
:1055000001FE47466D100BD0206838B9224621466F
:105510003046FFF70DFF2060C0F800900446E4E736
:105520003846BDE8F88300BF807300082072000889
:10553000377200082DE9F0470C460746914623696B
:10554000496803EB6218A3684FEA621A08F1010682
:10555000B3420BDB3846FFF795FD054648B90246D6
:105560004FF4EF71274B284801F08CF901315B00B3
:10557000EEE7002300F1140100F110021846534534
:1055800033DB20692AEAEA7A04F1140319F01F09CF
:1055900001EB8A0103EB800C2BD08A460022C9F173
:1055A000200E186800FA09F010434AF8040B53F86B
:1055B000042B9C4522FA0EF2F3D8ACEB0403153B06
:1055C00023F00303043304F11500844538BF04239A
:1055D000CA500AB108F10206013E384621462E6142
:1055E000FFF790FD2846BDE8F08742F8040F01332D
:1055F000C5E7043953F8042B9C4541F8042FF9D82A
:10560000EAE700BFAF7100083772000803460A6975
:10561000006930B5801A0DD11433143103EB8204C4
:1056200001EB820154F8045D51F8042D954202D03B
:1056300004D3012030BDA342F4D3FBE74FF0FF3089
:10564000F8E700002DE9F84F0D46074611462846B9
:105650001446FFF7DBFF061E11D131463846FFF72F
:1056600011FD024628B940F237213A4B3A4801F081
:1056700009F90123C0E904361046BDE8F88FA4BF3C
:1056800023462C4638466168A6BF1D4600260126E3
:10569000FFF7F8FC024618B940F245212D4BE5E72B
:1056A00002F11408C2464FF0000C2769C6602E694B
:1056B00004F1140005F1140900EB870E09EB8606CE
:1056C000103454F804BF59F8043B1FFA8BF16144BD
:1056D0001FFA83FC1B0CA1EB0C01C3EB1B4303EB78
:1056E000214389B241EA03414E454FEA234C4AF82F
:1056F000041BE6D8731B153B23F003031535043355
:10570000AE4238BF0423184443441E46054675453F
:105710000ED30EF10301091A21F003010338864567
:1057200038BF00210B4453F8041D89B11761A3E76A
:1057300055F8048B1FFA88F161440C1404EB1844EB
:1057400089B241EA04414FEA244C46F8041BDEE7E3
:10575000013FE8E7AF710008377200080E4B0B40BD
:10576000A3F15073002B08DC5B42B3F1A07F4FEA3A
:10577000235204DA4FF400231341002208E0A2F17F
:1057800014031E2BD6BF4FF000420122DA40002343
:1057900019461046704700BF0000F07FF8B5056954
:1057A00000F1140707EB850555F8044C2E1F204621
:1057B000FFF75AFDC0F120020A280346DFF868C04F
:1057C0000A6012DCC0F10B0E24FA0EF2B74242EA74
:1057D0000C012CBF002255F8082C153304FA03F3F2
:1057E00022FA0EF21A431046F8BDB7422EBF00222D
:1057F00055F8082CA5F108060B3B12D0C3F1200583
:1058000022FA05F19C400C43BE4244F07F5194BF04
:10581000002456F8044C9A40EC4041F440112243D5
:10582000E1E744EA0C01DEE70000F03FF7B50121B3
:1058300017461C46089EFFF725FC054630B9024670
:1058400040F20F31224B234801F01CF8C4F313033C
:10585000C4F30A5424BB002F019326D06846009756
:10586000FFF722FDDDE90012E8B1C0F1200302FAE2
:1058700003F30B43C2406B610192019B002B14BFE9
:1058800002210121AB612961BCB1A4F2334404447B
:105890003460C0F13500099B1860284603B0F0BDA4
:1058A00043F48013D7E76961E7E701A8FFF7FCFC41
:1058B000019B01216B612030E5E7A0F2324005EB4E
:1058C000810330601869FFF7CFFCC0EB4110E2E7BD
:1058D000AF710008377200082DE9F74F8846694616
:1058E0008146FFF75BFF0F4604460D46404601A97F
:1058F000FFF754FFD9F81030D8F810208B46A3EBEF
:10590000020CDDE900329B1A03EB4C13002BD5BFD0
:105910000A462A46C3EB033302EB0357D8BF02EB18
:10592000035B5B46024639462046FAF709FF03B09F
:10593000BDE8F08F013970B549111469013102F1E8
:10594000140300EB810103EB8404051FA3420CD375
:10595000A31A113B23F003031132A24288BF002394
:1059600018440023884205D370BD53F8046B45F8F2
:10597000046FEBE740F8043BF4E700F11402006920
:105980004B11984210B511DB0ADD11F01F0107D051
:1059900052F8234024FA01F000FA01F18C420BD1B5
:1059A00002EB8303934203D8002010BD0346F7E7C0
:1059B00053F8041D0029F5D00120F6E751F8043C06
:1059C000181F002BBCBF0B58C01870470346084671
:1059D00041B1FF2A04D98A224FF0FF301A60704784
:1059E00001200A7070472DE9F0471F468E688246F5
:1059F000BE420C4690460B682CD88A8912F4906FF0
:105A000026D06569096905EB4505A3EB010905EB9E
:105A1000D5757B1C4B446D109D4238BF1D46530508
:105A200027D52946FDF7E2FD064660B34A462169BF
:105A3000FEF75FFFA38923F4906343F08003A38103
:105A400026614E4426603E466561A5EB0905A560CA
:105A5000BE4200D93E4632464146206800F0E9FE8B
:105A60000020A3689B1BA360236833442360BDE828
:105A7000F0872A46FDF74EFE06460028E0D1504644
:105A80002169FEF74BFF0C23CAF80030A3894FF0C1
:105A9000FF3043F04003A381E9E700002DE9F04F18
:105AA00098468B8907461B060D4614469DB00ED5B9
:105AB0000B6963B94021FDF799FD2860286120B981
:105AC0000C233B604FF0FF30D0E040236B6100239C
:105AD000099320238DF8293030234FF00109CDF8A8
